{
  "contractName": "Arithmetic",
  "abi": [
    {
      "constant": true,
      "inputs": [
        {
          "name": "a",
          "type": "uint256"
        },
        {
          "name": "b",
          "type": "uint256"
        }
      ],
      "name": "mul256By256",
      "outputs": [
        {
          "name": "ab32",
          "type": "uint256"
        },
        {
          "name": "ab1",
          "type": "uint256"
        },
        {
          "name": "ab0",
          "type": "uint256"
        }
      ],
      "payable": false,
      "stateMutability": "pure",
      "type": "function"
    },
    {
      "constant": true,
      "inputs": [
        {
          "name": "a",
          "type": "uint256"
        },
        {
          "name": "b",
          "type": "uint256"
        },
        {
          "name": "divisor",
          "type": "uint256"
        }
      ],
      "name": "overflowResistantFraction",
      "outputs": [
        {
          "name": "",
          "type": "uint256"
        }
      ],
      "payable": false,
      "stateMutability": "pure",
      "type": "function"
    },
    {
      "constant": true,
      "inputs": [
        {
          "name": "a21",
          "type": "uint256"
        },
        {
          "name": "a0",
          "type": "uint256"
        },
        {
          "name": "b",
          "type": "uint256"
        }
      ],
      "name": "div256_128By256",
      "outputs": [
        {
          "name": "q",
          "type": "uint256"
        },
        {
          "name": "r",
          "type": "uint256"
        }
      ],
      "payable": false,
      "stateMutability": "pure",
      "type": "function"
    }
  ],
  "bytecode": "0x6060604052341561000f57600080fd5b6104778061001e6000396000f300606060405260043610610057576000357c0100000000000000000000000000000000000000000000000000000000900463ffffffff1680630cda88ce1461005c5780631a8943dd1461009f5780633b130649146100dd575b600080fd5b61007b6004808035906020019091908035906020019091905050610122565b60405180848152602001838152602001828152602001935050505060405180910390f35b6100c76004808035906020019091908035906020019091908035906020019091905050610205565b6040518082815260200191505060405180910390f35b61010560048080359060200190919080359060200190919080359060200190919050506102a1565b604051808381526020018281526020019250505060405180910390f35b60008060008060008060006080899060020a900493506fffffffffffffffffffffffffffffffff891692506080889060020a900491506fffffffffffffffffffffffffffffffff8816905080830294506fffffffffffffffffffffffffffffffff828402166fffffffffffffffffffffffffffffffff828602166080879060020a90040101955060808284029060020a900460808286029060020a90048386026080899060020a900401010196506fffffffffffffffffffffffffffffffff861695506fffffffffffffffffffffffffffffffff85169450505050509250925092565b6000806000806001861115806102345750600086141580156102335750868687890281151561023057fe5b04145b5b1561024e578486880281151561024657fe5b049350610297565b6102588787610122565b80935081945082955050505061026f8383876102a1565b80935081945050506102828282876102a1565b8097508198505050866080849060020a020193505b5050509392505050565b600080600080600080600080600060808a8d8115156102bc57fe5b049060020a029650898c8115156102cf57fe5b069b50600095505b6000868b9060020a900411156102f45785806001019650506102d7565b856101000395506080861161031357856080038b9060020a900461031e565b608086038b9060020a025b868d9060020a02019b506fffffffffffffffffffffffffffffffff868c9060020a02169a50858a9060020a02995060808a9060020a90046fffffffffffffffffffffffffffffffff8b1694509450848c81151561037757fe5b049850848c81151561038557fe5b069250836fffffffffffffffffffffffffffffffff8a160291506080829060020a90048460808b9060020a9004020190506fffffffffffffffffffffffffffffffff821691505b828111806103e4575082811480156103e357508a82115b5b1561042057888060019003995050838b019a5060808b9060020a90048501830192506fffffffffffffffffffffffffffffffff8b169a506103cc565b868901985085828c60808487039060020a0201039060020a90049750505050505050509350939150505600a165627a7a723058208ac897f7b8688df16365d75726639fb6f99dbe6329c024398ff42a0c8d6e10900029",
  "source": "pragma solidity 0.4.18;\n\n// Arithmetic library borrowed from Gnosis, thanks guys!\n\nlibrary Arithmetic {\n    function mul256By256(uint a, uint b)\n        public\n        pure\n        returns (uint ab32, uint ab1, uint ab0)\n    {\n        uint ahi = a >> 128;\n        uint alo = a & 2**128-1;\n        uint bhi = b >> 128;\n        uint blo = b & 2**128-1;\n        ab0 = alo * blo;\n        ab1 = (ab0 >> 128) + (ahi * blo & 2**128-1) + (alo * bhi & 2**128-1);\n        ab32 = (ab1 >> 128) + ahi * bhi + (ahi * blo >> 128) + (alo * bhi >> 128);\n        ab1 &= 2**128-1;\n        ab0 &= 2**128-1;\n    }\n\n    // I adapted this from Fast Division of Large Integers by Karl Hasselström\n    // Algorithm 3.4: Divide-and-conquer division (3 by 2)\n    // Karl got it from Burnikel and Ziegler and the GMP lib implementation\n    function div256_128By256(uint a21, uint a0, uint b) \n        public \n        pure\n        returns (uint q, uint r)\n    {\n        uint qhi = (a21 / b) << 128;\n        a21 %= b;\n\n        uint shift = 0;\n        while(b >> shift > 0) shift++;\n        shift = 256 - shift;\n        a21 = (a21 << shift) + (shift > 128 ? a0 << (shift - 128) : a0 >> (128 - shift));\n        a0 = (a0 << shift) & 2**128-1;\n        b <<= shift;\n        var (b1, b0) = (b >> 128, b & 2**128-1);\n\n        uint rhi;\n        q = a21 / b1;\n        rhi = a21 % b1;\n\n        uint rsub0 = (q & 2**128-1) * b0;\n        uint rsub21 = (q >> 128) * b0 + (rsub0 >> 128);\n        rsub0 &= 2**128-1;\n\n        while(rsub21 > rhi || rsub21 == rhi && rsub0 > a0) {\n            q--;\n            a0 += b0;\n            rhi += b1 + (a0 >> 128);\n            a0 &= 2**128-1;\n        }\n\n        q += qhi;\n        r = (((rhi - rsub21) << 128) + a0 - rsub0) >> shift;\n    }\n\n    function overflowResistantFraction(uint a, uint b, uint divisor)\n        public \n        pure \n        returns (uint)\n    {\n        uint ab32_q1; uint ab1_r1; uint ab0;\n        if(b <= 1 || b != 0 && a * b / b == a) {\n            return a * b / divisor;\n        } else {\n            (ab32_q1, ab1_r1, ab0) = mul256By256(a, b);\n            (ab32_q1, ab1_r1) = div256_128By256(ab32_q1, ab1_r1, divisor);\n            (a, b) = div256_128By256(ab1_r1, ab0, divisor);\n            return (ab32_q1 << 128) + a;\n        }\n    }\n}",
  "sourcePath": "/Users/jiaji/yuanben/primas-contracts/contracts/lib/Arithmetic.sol",
  "compiler": {
    "name": "solc",
    "version": "0.4.18+commit.9cf6e910.Emscripten.clang"
  },
  "schemaVersion": "1.0.1",
  "updatedAt": "2017-12-19T11:18:56.291Z"
}