{
  "contractName": "Metadata",
  "abi": [
    {
      "constant": false,
      "inputs": [
        {
          "name": "title",
          "type": "bytes"
        },
        {
          "name": "content_hash",
          "type": "bytes"
        },
        {
          "name": "license",
          "type": "bytes"
        },
        {
          "name": "block_hash",
          "type": "bytes"
        },
        {
          "name": "extras",
          "type": "bytes"
        },
        {
          "name": "signature",
          "type": "bytes"
        }
      ],
      "name": "sign_publish",
      "outputs": [
        {
          "name": "",
          "type": "bytes"
        }
      ],
      "payable": false,
      "stateMutability": "nonpayable",
      "type": "function"
    },
    {
      "anonymous": false,
      "inputs": [
        {
          "indexed": false,
          "name": "title",
          "type": "bytes"
        },
        {
          "indexed": false,
          "name": "content_hash",
          "type": "bytes"
        },
        {
          "indexed": false,
          "name": "license",
          "type": "bytes"
        },
        {
          "indexed": false,
          "name": "extras",
          "type": "bytes"
        },
        {
          "indexed": false,
          "name": "dna",
          "type": "bytes"
        },
        {
          "indexed": false,
          "name": "signature",
          "type": "bytes"
        },
        {
          "indexed": false,
          "name": "pk",
          "type": "address"
        }
      ],
      "name": "MetadataPublishLog",
      "type": "event"
    }
  ],
  "bytecode": "0x6060604052341561000f57600080fd5b610adb8061001e6000396000f300606060405260043610610041576000357c0100000000000000000000000000000000000000000000000000000000900463ffffffff16806301f7b11114610046575b600080fd5b341561005157600080fd5b6101f0600480803590602001908201803590602001908080601f0160208091040260200160405190810160405280939291908181526020018383808284378201915050505050509190803590602001908201803590602001908080601f0160208091040260200160405190810160405280939291908181526020018383808284378201915050505050509190803590602001908201803590602001908080601f0160208091040260200160405190810160405280939291908181526020018383808284378201915050505050509190803590602001908201803590602001908080601f0160208091040260200160405190810160405280939291908181526020018383808284378201915050505050509190803590602001908201803590602001908080601f0160208091040260200160405190810160405280939291908181526020018383808284378201915050505050509190803590602001908201803590602001908080601f0160208091040260200160405190810160405280939291908181526020018383808284378201915050505050509190505061026b565b6040518080602001828103825283818151815260200191508051906020019080838360005b83811015610230578082015181840152602081019050610215565b50505050905090810190601f16801561025d5780820380516001836020036101000a031916815260200191505b509250505060405180910390f35b610273610a9b565b600080600080610281610a9b565b6102966102918860006020610513565b610609565b94506102ac6102a788602080610513565b610609565b93506102bb8760406001610513565b60008151811015156102c957fe5b9060200101517f010000000000000000000000000000000000000000000000000000000000000090047f010000000000000000000000000000000000000000000000000000000000000002925061042e8c8c8c6040518084805190602001908083835b602083101515610351578051825260208201915060208101905060208303925061032c565b6001836020036101000a03801982511681845116808217855250505050505090500183805190602001908083835b6020831015156103a4578051825260208201915060208101905060208303925061037f565b6001836020036101000a03801982511681845116808217855250505050505090500182805190602001908083835b6020831015156103f757805182526020820191506020810190506020830392506103d2565b6001836020036101000a03801982511681845116808217855250505050505090500193505050506040518091039020868686610617565b91506104f0878a6040518083805190602001908083835b60208310151561046a5780518252602082019150602081019050602083039250610445565b6001836020036101000a03801982511681845116808217855250505050505090500182805190602001908083835b6020831015156104bd5780518252602082019150602081019050602083039250610498565b6001836020036101000a0380198251168184511680821785525050505050509050019250505060405180910390206106d5565b90506105018c8c8c8b858c886107a1565b80955050505050509695505050505050565b61051b610a9b565b610523610a9b565b6000836040518059106105335750595b9080825280601f01601f19166020018201604052509150600090505b838110156105fd578585820181518110151561056757fe5b9060200101517f010000000000000000000000000000000000000000000000000000000000000090047f01000000000000000000000000000000000000000000000000000000000000000282828151811015156105c057fe5b9060200101907effffffffffffffffffffffffffffffffffffffffffffffffffffffffffffff1916908160001a905350808060010191505061054f565b81925050509392505050565b600060208201519050919050565b600080601b837f01000000000000000000000000000000000000000000000000000000000000009004019050600186828787604051600081526020016040526000604051602001526040518085600019166000191681526020018460ff1660ff16815260200183600019166000191681526020018260001916600019168152602001945050505050602060405160208103908084039060008661646e5a03f115156106c157600080fd5b505060206040510351915050949350505050565b6106dd610a9b565b6106e5610a9b565b600060206040518059106106f65750595b9080825280601f01601f19166020018201604052509150600090505b602081101561079757838160208110151561072957fe5b1a7f010000000000000000000000000000000000000000000000000000000000000002828281518110151561075a57fe5b9060200101907effffffffffffffffffffffffffffffffffffffffffffffffffffffffffffff1916908160001a9053508080600101915050610712565b8192505050919050565b7feb9c20108e54d356242b30fb6d20d15d387ff80600c0ab3c855cfe14cd31138e87878787878787604051808060200180602001806020018060200180602001806020018873ffffffffffffffffffffffffffffffffffffffff1673ffffffffffffffffffffffffffffffffffffffff16815260200187810387528e818151815260200191508051906020019080838360005b8381101561084f578082015181840152602081019050610834565b50505050905090810190601f16801561087c5780820380516001836020036101000a031916815260200191505b5087810386528d818151815260200191508051906020019080838360005b838110156108b557808201518184015260208101905061089a565b50505050905090810190601f1680156108e25780820380516001836020036101000a031916815260200191505b5087810385528c818151815260200191508051906020019080838360005b8381101561091b578082015181840152602081019050610900565b50505050905090810190601f1680156109485780820380516001836020036101000a031916815260200191505b5087810384528b818151815260200191508051906020019080838360005b83811015610981578082015181840152602081019050610966565b50505050905090810190601f1680156109ae5780820380516001836020036101000a031916815260200191505b5087810383528a818151815260200191508051906020019080838360005b838110156109e75780820151818401526020810190506109cc565b50505050905090810190601f168015610a145780820380516001836020036101000a031916815260200191505b50878103825289818151815260200191508051906020019080838360005b83811015610a4d578082015181840152602081019050610a32565b50505050905090810190601f168015610a7a5780820380516001836020036101000a031916815260200191505b509d505050505050505050505050505060405180910390a150505050505050565b6020604051908101604052806000815250905600a165627a7a723058208f20d2a4bed4bbe74f520fe3921cd85e2292cbc9515d2d06c4a583fa7d65fc070029",
  "source": "pragma solidity ^0.4.16;\n\ncontract Metadata {\n\n    /*** Events ****************/\n    event MetadataPublishLog(\n    bytes title,\n    bytes content_hash,\n    bytes license,\n    bytes extras,\n    bytes dna,\n    bytes signature,\n    address pk\n    );\n\n    /*** Functions ****************/\n\n    function publish(\n    bytes title,\n    bytes content_hash,\n    bytes license,\n    bytes extras,\n    bytes dna,\n    bytes signature,\n    address pk\n    ) internal {\n        MetadataPublishLog(title, content_hash, license, extras, dna, signature, pk);\n    }\n\n    function sign_publish(\n    bytes title,\n    bytes content_hash,\n    bytes license,\n    bytes block_hash,\n    bytes extras,\n    bytes signature\n    ) public returns (bytes) {\n\n        bytes32 r = bytesToBytes32(slice(signature, 0, 32));\n        bytes32 s = bytesToBytes32(slice(signature, 32, 32));\n        byte v = slice(signature, 64, 1)[0];\n\n        // 得到公钥地址\n        address pk = ecrecoverDecode(keccak256(title, content_hash, license), r, s, v);\n\n        // 计算dna\n        bytes memory dna = Bytes32toBytes(keccak256(signature, block_hash));\n\n        publish(title, content_hash, license, extras, dna, signature, pk);\n\n        return dna;\n    }\n\n    //bytes转换为bytes32\n    function bytesToBytes32(bytes memory source) internal returns (bytes32 result) {\n        assembly {\n        result := mload(add(source, 32))\n        }\n    }\n\n    function bytes32ToString(bytes32 x) constant private returns (string) {\n        bytes memory bytesString = new bytes(32);\n        uint charCount = 0;\n        for (uint j = 0; j < 32; j++) {\n            byte char = byte(bytes32(uint(x) * 2 ** (8 * j)));\n            if (char != 0) {\n                bytesString[charCount] = char;\n                charCount++;\n            }\n        }\n        bytes memory bytesStringTrimmed = new bytes(charCount);\n        for (j = 0; j < charCount; j++) {\n            bytesStringTrimmed[j] = bytesString[j];\n        }\n        return string(bytesStringTrimmed);\n    }\n\n    //使用ecrecover恢复公匙\n    function ecrecoverDecode(bytes32 sig_mag, bytes32 r, bytes32 s, byte v1) internal returns (address addr){\n        uint8 v = uint8(v1) + 27;\n        addr = ecrecover(sig_mag, v, r, s);\n    }\n\n    function Bytes32toBytes(bytes32 x) internal returns (bytes) {\n        bytes memory c = new bytes(32);\n        for (uint i = 0; i < 32; i++) {\n            c[i] = x[i];\n        }\n        return c;\n    }\n\n\n    //将原始数据按段切割出来指定长度\n    function slice(bytes memory data, uint start, uint len) internal returns (bytes){\n        bytes memory b = new bytes(len);\n\n        for (uint i = 0; i < len; i++) {\n            b[i] = data[i + start];\n        }\n\n        return b;\n    }\n}\n",
  "sourcePath": "/Users/jiaji/yuanben/primas-contracts/contracts/dtcp/Metadata.sol",
  "compiler": {
    "name": "solc",
    "version": "0.4.18+commit.9cf6e910.Emscripten.clang"
  },
  "schemaVersion": "1.0.1",
  "updatedAt": "2017-12-20T06:32:15.534Z"
}