{
  "contractName": "PrimasToken",
  "abi": [
    {
      "constant": true,
      "inputs": [],
      "name": "name",
      "outputs": [
        {
          "name": "",
          "type": "string"
        }
      ],
      "payable": false,
      "stateMutability": "view",
      "type": "function"
    },
    {
      "constant": false,
      "inputs": [
        {
          "name": "_spender",
          "type": "address"
        },
        {
          "name": "_value",
          "type": "uint256"
        }
      ],
      "name": "approve",
      "outputs": [
        {
          "name": "success",
          "type": "bool"
        }
      ],
      "payable": false,
      "stateMutability": "nonpayable",
      "type": "function"
    },
    {
      "constant": true,
      "inputs": [],
      "name": "totalSupply",
      "outputs": [
        {
          "name": "",
          "type": "uint256"
        }
      ],
      "payable": false,
      "stateMutability": "view",
      "type": "function"
    },
    {
      "constant": false,
      "inputs": [
        {
          "name": "_from",
          "type": "address"
        },
        {
          "name": "_to",
          "type": "address"
        },
        {
          "name": "_value",
          "type": "uint256"
        }
      ],
      "name": "transferFrom",
      "outputs": [
        {
          "name": "success",
          "type": "bool"
        }
      ],
      "payable": false,
      "stateMutability": "nonpayable",
      "type": "function"
    },
    {
      "constant": false,
      "inputs": [
        {
          "name": "_beneficiary",
          "type": "address"
        },
        {
          "name": "_dna",
          "type": "bytes32"
        },
        {
          "name": "_value",
          "type": "uint256"
        },
        {
          "name": "_releaseTime",
          "type": "uint256"
        }
      ],
      "name": "tokenTimelock",
      "outputs": [],
      "payable": false,
      "stateMutability": "nonpayable",
      "type": "function"
    },
    {
      "constant": true,
      "inputs": [],
      "name": "decimals",
      "outputs": [
        {
          "name": "",
          "type": "uint256"
        }
      ],
      "payable": false,
      "stateMutability": "view",
      "type": "function"
    },
    {
      "constant": true,
      "inputs": [],
      "name": "version",
      "outputs": [
        {
          "name": "",
          "type": "string"
        }
      ],
      "payable": false,
      "stateMutability": "view",
      "type": "function"
    },
    {
      "constant": true,
      "inputs": [
        {
          "name": "_owner",
          "type": "address"
        }
      ],
      "name": "balanceOf",
      "outputs": [
        {
          "name": "balance",
          "type": "uint256"
        }
      ],
      "payable": false,
      "stateMutability": "view",
      "type": "function"
    },
    {
      "constant": false,
      "inputs": [
        {
          "name": "_beneficiary",
          "type": "address"
        },
        {
          "name": "_dna",
          "type": "bytes32"
        }
      ],
      "name": "releaseArticleLockToken",
      "outputs": [],
      "payable": false,
      "stateMutability": "nonpayable",
      "type": "function"
    },
    {
      "constant": true,
      "inputs": [
        {
          "name": "_autherAddress",
          "type": "address"
        }
      ],
      "name": "checkAutherRequire",
      "outputs": [
        {
          "name": "",
          "type": "bool"
        }
      ],
      "payable": false,
      "stateMutability": "view",
      "type": "function"
    },
    {
      "constant": false,
      "inputs": [
        {
          "name": "_operator",
          "type": "address"
        },
        {
          "name": "_value",
          "type": "uint256"
        }
      ],
      "name": "updateIncentivesOperator",
      "outputs": [
        {
          "name": "success",
          "type": "bool"
        }
      ],
      "payable": false,
      "stateMutability": "nonpayable",
      "type": "function"
    },
    {
      "constant": true,
      "inputs": [],
      "name": "symbol",
      "outputs": [
        {
          "name": "",
          "type": "string"
        }
      ],
      "payable": false,
      "stateMutability": "view",
      "type": "function"
    },
    {
      "constant": true,
      "inputs": [
        {
          "name": "",
          "type": "address"
        }
      ],
      "name": "incentivesOperators",
      "outputs": [
        {
          "name": "",
          "type": "bool"
        }
      ],
      "payable": false,
      "stateMutability": "view",
      "type": "function"
    },
    {
      "constant": false,
      "inputs": [],
      "name": "inflate",
      "outputs": [
        {
          "name": "success",
          "type": "bool"
        }
      ],
      "payable": false,
      "stateMutability": "nonpayable",
      "type": "function"
    },
    {
      "constant": false,
      "inputs": [
        {
          "name": "_to",
          "type": "address"
        },
        {
          "name": "_value",
          "type": "uint256"
        }
      ],
      "name": "transfer",
      "outputs": [
        {
          "name": "success",
          "type": "bool"
        }
      ],
      "payable": false,
      "stateMutability": "nonpayable",
      "type": "function"
    },
    {
      "constant": true,
      "inputs": [],
      "name": "getIncentivesPool",
      "outputs": [
        {
          "name": "",
          "type": "uint256"
        }
      ],
      "payable": false,
      "stateMutability": "view",
      "type": "function"
    },
    {
      "constant": false,
      "inputs": [
        {
          "name": "_value",
          "type": "uint256"
        }
      ],
      "name": "incentivesOut",
      "outputs": [
        {
          "name": "success",
          "type": "bool"
        }
      ],
      "payable": false,
      "stateMutability": "nonpayable",
      "type": "function"
    },
    {
      "constant": false,
      "inputs": [
        {
          "name": "_fineUser",
          "type": "address"
        },
        {
          "name": "_fineAmount",
          "type": "uint256"
        }
      ],
      "name": "penaltyAuther",
      "outputs": [],
      "payable": false,
      "stateMutability": "nonpayable",
      "type": "function"
    },
    {
      "constant": true,
      "inputs": [
        {
          "name": "_owner",
          "type": "address"
        },
        {
          "name": "_spender",
          "type": "address"
        }
      ],
      "name": "allowance",
      "outputs": [
        {
          "name": "remaining",
          "type": "uint256"
        }
      ],
      "payable": false,
      "stateMutability": "view",
      "type": "function"
    },
    {
      "constant": false,
      "inputs": [
        {
          "name": "_value",
          "type": "uint256"
        }
      ],
      "name": "incentivesIn",
      "outputs": [
        {
          "name": "success",
          "type": "bool"
        }
      ],
      "payable": false,
      "stateMutability": "nonpayable",
      "type": "function"
    },
    {
      "constant": false,
      "inputs": [
        {
          "name": "_operator",
          "type": "address"
        },
        {
          "name": "_value",
          "type": "uint256"
        }
      ],
      "name": "updateAutherMember",
      "outputs": [],
      "payable": false,
      "stateMutability": "nonpayable",
      "type": "function"
    },
    {
      "inputs": [
        {
          "name": "_primasStorageAddress",
          "type": "address"
        }
      ],
      "payable": false,
      "stateMutability": "nonpayable",
      "type": "constructor"
    },
    {
      "anonymous": false,
      "inputs": [
        {
          "indexed": true,
          "name": "_from",
          "type": "address"
        },
        {
          "indexed": false,
          "name": "poolStakingTimeID",
          "type": "string"
        },
        {
          "indexed": false,
          "name": "value",
          "type": "uint256"
        },
        {
          "indexed": false,
          "name": "created",
          "type": "uint256"
        }
      ],
      "name": "UserDeposit",
      "type": "event"
    },
    {
      "anonymous": false,
      "inputs": [
        {
          "indexed": true,
          "name": "_userAddress",
          "type": "address"
        },
        {
          "indexed": true,
          "name": "_partnerAddress",
          "type": "address"
        },
        {
          "indexed": true,
          "name": "_pool",
          "type": "address"
        },
        {
          "indexed": false,
          "name": "created",
          "type": "uint256"
        }
      ],
      "name": "UserAddedToPool",
      "type": "event"
    },
    {
      "anonymous": false,
      "inputs": [
        {
          "indexed": true,
          "name": "_userAddress",
          "type": "address"
        },
        {
          "indexed": true,
          "name": "_userBackupAddress",
          "type": "address"
        },
        {
          "indexed": true,
          "name": "_pool",
          "type": "address"
        },
        {
          "indexed": false,
          "name": "created",
          "type": "uint256"
        }
      ],
      "name": "UserSetBackupWithdrawalAddress",
      "type": "event"
    },
    {
      "anonymous": false,
      "inputs": [
        {
          "indexed": true,
          "name": "_userAddress",
          "type": "address"
        },
        {
          "indexed": true,
          "name": "_userNewAddress",
          "type": "address"
        },
        {
          "indexed": true,
          "name": "_pool",
          "type": "address"
        },
        {
          "indexed": false,
          "name": "created",
          "type": "uint256"
        }
      ],
      "name": "UserChangedToWithdrawalAddress",
      "type": "event"
    },
    {
      "anonymous": false,
      "inputs": [
        {
          "indexed": true,
          "name": "_userAddress",
          "type": "address"
        },
        {
          "indexed": false,
          "name": "amount",
          "type": "uint256"
        },
        {
          "indexed": false,
          "name": "tokenAmount",
          "type": "uint256"
        },
        {
          "indexed": false,
          "name": "created",
          "type": "uint256"
        }
      ],
      "name": "UserDepositTokensWithdrawal",
      "type": "event"
    },
    {
      "anonymous": false,
      "inputs": [
        {
          "indexed": true,
          "name": "_from",
          "type": "address"
        },
        {
          "indexed": true,
          "name": "_to",
          "type": "address"
        },
        {
          "indexed": true,
          "name": "_typeOf",
          "type": "bytes32"
        },
        {
          "indexed": false,
          "name": "value",
          "type": "uint256"
        },
        {
          "indexed": false,
          "name": "created",
          "type": "uint256"
        }
      ],
      "name": "Transferred",
      "type": "event"
    },
    {
      "anonymous": false,
      "inputs": [
        {
          "indexed": false,
          "name": "flag",
          "type": "uint256"
        }
      ],
      "name": "FlagUint",
      "type": "event"
    },
    {
      "anonymous": false,
      "inputs": [
        {
          "indexed": false,
          "name": "flag",
          "type": "address"
        }
      ],
      "name": "FlagAddress",
      "type": "event"
    },
    {
      "anonymous": false,
      "inputs": [
        {
          "indexed": true,
          "name": "_operator",
          "type": "address"
        },
        {
          "indexed": false,
          "name": "amount",
          "type": "uint256"
        },
        {
          "indexed": false,
          "name": "created",
          "type": "uint256"
        }
      ],
      "name": "UpdateAutherMemberLog",
      "type": "event"
    },
    {
      "anonymous": false,
      "inputs": [
        {
          "indexed": true,
          "name": "_from",
          "type": "address"
        },
        {
          "indexed": true,
          "name": "_to",
          "type": "address"
        },
        {
          "indexed": false,
          "name": "_value",
          "type": "uint256"
        }
      ],
      "name": "Transfer",
      "type": "event"
    },
    {
      "anonymous": false,
      "inputs": [
        {
          "indexed": true,
          "name": "_owner",
          "type": "address"
        },
        {
          "indexed": true,
          "name": "_spender",
          "type": "address"
        },
        {
          "indexed": false,
          "name": "_value",
          "type": "uint256"
        }
      ],
      "name": "Approval",
      "type": "event"
    }
  ],
  "bytecode": "0x60606040526040805190810160405280600f81526020017f5072696d617320546f6b656e205631000000000000000000000000000000000081525060039080519060200190620000519291906200025f565b5060126004556040805190810160405280600381526020017f505354000000000000000000000000000000000000000000000000000000000081525060059080519060200190620000a49291906200025f565b506040805190810160405280600481526020017f56312e300000000000000000000000000000000000000000000000000000000081525060069080519060200190620000f29291906200025f565b506000601060006101000a81548173ffffffffffffffffffffffffffffffffffffffff021916908373ffffffffffffffffffffffffffffffffffffffff16021790555034156200014157600080fd5b60405160208062001d5d83398101604052808051906020019091905050600454600a0a6305f5e10002600881905550600854600160003373ffffffffffffffffffffffffffffffffffffffff1673ffffffffffffffffffffffffffffffffffffffff1681526020019081526020016000208190555060085460008190555033600760006101000a81548173ffffffffffffffffffffffffffffffffffffffff021916908373ffffffffffffffffffffffffffffffffffffffff160217905550426009819055506000600b819055506000600a8190555080601060006101000a81548173ffffffffffffffffffffffffffffffffffffffff021916908373ffffffffffffffffffffffffffffffffffffffff160217905550506200030e565b828054600181600116156101000203166002900490600052602060002090601f016020900481019282601f10620002a257805160ff1916838001178555620002d3565b82800160010185558215620002d3579182015b82811115620002d2578251825591602001919060010190620002b5565b5b509050620002e29190620002e6565b5090565b6200030b91905b8082111562000307576000816000905550600101620002ed565b5090565b90565b611a3f806200031e6000396000f30060606040526004361061011d576000357c0100000000000000000000000000000000000000000000000000000000900463ffffffff16806306fdde0314610122578063095ea7b3146101b057806318160ddd1461020a57806323b872dd146102335780632df9520f146102ac578063313ce5671461030457806354fd4d501461032d57806370a08231146103bb57806371124b681461040857806372d432be1461044e57806373eb34711461049f57806395d89b41146104f9578063a0ac4a3114610587578063a5a98d78146105d8578063a9059cbb14610605578063ba6afc501461065f578063bcb638d914610688578063bf250d84146106c3578063dd62ed3e14610705578063f0e68ba214610771578063fa9f5701146107ac575b600080fd5b341561012d57600080fd5b6101356107ee565b6040518080602001828103825283818151815260200191508051906020019080838360005b8381101561017557808201518184015260208101905061015a565b50505050905090810190601f1680156101a25780820380516001836020036101000a031916815260200191505b509250505060405180910390f35b34156101bb57600080fd5b6101f0600480803573ffffffffffffffffffffffffffffffffffffffff1690602001909190803590602001909190505061088c565b604051808215151515815260200191505060405180910390f35b341561021557600080fd5b61021d61097e565b6040518082815260200191505060405180910390f35b341561023e57600080fd5b610292600480803573ffffffffffffffffffffffffffffffffffffffff1690602001909190803573ffffffffffffffffffffffffffffffffffffffff16906020019091908035906020019091905050610984565b604051808215151515815260200191505060405180910390f35b34156102b757600080fd5b610302600480803573ffffffffffffffffffffffffffffffffffffffff1690602001909190803560001916906020019091908035906020019091908035906020019091905050610c7b565b005b341561030f57600080fd5b610317610d71565b6040518082815260200191505060405180910390f35b341561033857600080fd5b610340610d77565b6040518080602001828103825283818151815260200191508051906020019080838360005b83811015610380578082015181840152602081019050610365565b50505050905090810190601f1680156103ad5780820380516001836020036101000a031916815260200191505b509250505060405180910390f35b34156103c657600080fd5b6103f2600480803573ffffffffffffffffffffffffffffffffffffffff16906020019091905050610e15565b6040518082815260200191505060405180910390f35b341561041357600080fd5b61044c600480803573ffffffffffffffffffffffffffffffffffffffff1690602001909190803560001916906020019091905050610ea4565b005b341561045957600080fd5b610485600480803573ffffffffffffffffffffffffffffffffffffffff16906020019091905050610fc4565b604051808215151515815260200191505060405180910390f35b34156104aa57600080fd5b6104df600480803573ffffffffffffffffffffffffffffffffffffffff16906020019091908035906020019091905050611027565b604051808215151515815260200191505060405180910390f35b341561050457600080fd5b61050c611152565b6040518080602001828103825283818151815260200191508051906020019080838360005b8381101561054c578082015181840152602081019050610531565b50505050905090810190601f1680156105795780820380516001836020036101000a031916815260200191505b509250505060405180910390f35b341561059257600080fd5b6105be600480803573ffffffffffffffffffffffffffffffffffffffff169060200190919050506111f0565b604051808215151515815260200191505060405180910390f35b34156105e357600080fd5b6105eb611210565b604051808215151515815260200191505060405180910390f35b341561061057600080fd5b610645600480803573ffffffffffffffffffffffffffffffffffffffff1690602001909190803590602001909190505061130c565b604051808215151515815260200191505060405180910390f35b341561066a57600080fd5b610672611531565b6040518082815260200191505060405180910390f35b341561069357600080fd5b6106a9600480803590602001909190505061153b565b604051808215151515815260200191505060405180910390f35b34156106ce57600080fd5b610703600480803573ffffffffffffffffffffffffffffffffffffffff1690602001909190803590602001909190505061169e565b005b341561071057600080fd5b61075b600480803573ffffffffffffffffffffffffffffffffffffffff1690602001909190803573ffffffffffffffffffffffffffffffffffffffff16906020019091905050611753565b6040518082815260200191505060405180910390f35b341561077c57600080fd5b61079260048080359060200190919050506117da565b604051808215151515815260200191505060405180910390f35b34156107b757600080fd5b6107ec600480803573ffffffffffffffffffffffffffffffffffffffff16906020019091908035906020019091905050611900565b005b60038054600181600116156101000203166002900480601f0160208091040260200160405190810160405280929190818152602001828054600181600116156101000203166002900480156108845780601f1061085957610100808354040283529160200191610884565b820191906000526020600020905b81548152906001019060200180831161086757829003601f168201915b505050505081565b600081600260003373ffffffffffffffffffffffffffffffffffffffff1673ffffffffffffffffffffffffffffffffffffffff16815260200190815260200160002060008573ffffffffffffffffffffffffffffffffffffffff1673ffffffffffffffffffffffffffffffffffffffff168152602001908152602001600020819055508273ffffffffffffffffffffffffffffffffffffffff163373ffffffffffffffffffffffffffffffffffffffff167f8c5be1e5ebec7d5bd14f71427d1e84f3dd0314c0f7b2291e5b200ac8c7c3b925846040518082815260200191505060405180910390a36001905092915050565b60005481565b600081600160008673ffffffffffffffffffffffffffffffffffffffff1673ffffffffffffffffffffffffffffffffffffffff1681526020019081526020016000205410158015610a51575081600260008673ffffffffffffffffffffffffffffffffffffffff1673ffffffffffffffffffffffffffffffffffffffff16815260200190815260200160002060003373ffffffffffffffffffffffffffffffffffffffff1673ffffffffffffffffffffffffffffffffffffffff1681526020019081526020016000205410155b8015610adc5750600160008473ffffffffffffffffffffffffffffffffffffffff1673ffffffffffffffffffffffffffffffffffffffff1681526020019081526020016000205482600160008673ffffffffffffffffffffffffffffffffffffffff1673ffffffffffffffffffffffffffffffffffffffff1681526020019081526020016000205401115b1515610ae757600080fd5b81600160008573ffffffffffffffffffffffffffffffffffffffff1673ffffffffffffffffffffffffffffffffffffffff1681526020019081526020016000206000828254019250508190555081600160008673ffffffffffffffffffffffffffffffffffffffff1673ffffffffffffffffffffffffffffffffffffffff1681526020019081526020016000206000828254039250508190555081600260008673ffffffffffffffffffffffffffffffffffffffff1673ffffffffffffffffffffffffffffffffffffffff16815260200190815260200160002060003373ffffffffffffffffffffffffffffffffffffffff1673ffffffffffffffffffffffffffffffffffffffff168152602001908152602001600020600082825403925050819055508273ffffffffffffffffffffffffffffffffffffffff168473ffffffffffffffffffffffffffffffffffffffff167fddf252ad1be2c89b69c2b068fc378daa952ba7f163c4a11628f55a4df523b3ef846040518082815260200191505060405180910390a3600190509392505050565b600760009054906101000a900473ffffffffffffffffffffffffffffffffffffffff1673ffffffffffffffffffffffffffffffffffffffff163373ffffffffffffffffffffffffffffffffffffffff16141515610cd757600080fd5b81600d60008673ffffffffffffffffffffffffffffffffffffffff1673ffffffffffffffffffffffffffffffffffffffff1681526020019081526020016000206000828254019250508190555081600e60008560001916600019168152602001908152602001600020819055506201518081024201600f600085600019166000191681526020019081526020016000208190555050505050565b60045481565b60068054600181600116156101000203166002900480601f016020809104026020016040519081016040528092919081815260200182805460018160011615610100020316600290048015610e0d5780601f10610de257610100808354040283529160200191610e0d565b820191906000526020600020905b815481529060010190602001808311610df057829003601f168201915b505050505081565b600080600d60008473ffffffffffffffffffffffffffffffffffffffff1673ffffffffffffffffffffffffffffffffffffffff16815260200190815260200160002054600160008573ffffffffffffffffffffffffffffffffffffffff1673ffffffffffffffffffffffffffffffffffffffff1681526020019081526020016000205403905080915050919050565b6000600760009054906101000a900473ffffffffffffffffffffffffffffffffffffffff1673ffffffffffffffffffffffffffffffffffffffff163373ffffffffffffffffffffffffffffffffffffffff16141515610f0257600080fd5b42600f6000846000191660001916815260200190815260200160002054111515610f2b57600080fd5b600e6000836000191660001916815260200190815260200160002054905080600e600084600019166000191681526020019081526020016000206000828254039250508190555080600d60008573ffffffffffffffffffffffffffffffffffffffff1673ffffffffffffffffffffffffffffffffffffffff16815260200190815260200160002060008282540392505081905550505050565b600080600d60008473ffffffffffffffffffffffffffffffffffffffff1673ffffffffffffffffffffffffffffffffffffffff16815260200190815260200160002054905060008110151561101c5760019150611021565b600091505b50919050565b6000600760009054906101000a900473ffffffffffffffffffffffffffffffffffffffff1673ffffffffffffffffffffffffffffffffffffffff163373ffffffffffffffffffffffffffffffffffffffff1614151561108557600080fd5b600c60008473ffffffffffffffffffffffffffffffffffffffff1673ffffffffffffffffffffffffffffffffffffffff16815260200190815260200160002060009054906101000a900460ff1615156110dd57600080fd5b6000821115611147576001600c60008573ffffffffffffffffffffffffffffffffffffffff1673ffffffffffffffffffffffffffffffffffffffff16815260200190815260200160002060006101000a81548160ff0219169083151502179055506001905061114c565b600090505b92915050565b60058054600181600116156101000203166002900480601f0160208091040260200160405190810160405280929190818152602001828054600181600116156101000203166002900480156111e85780601f106111bd576101008083540402835291602001916111e8565b820191906000526020600020905b8154815290600101906020018083116111cb57829003601f168201915b505050505081565b600c6020528060005260406000206000915054906101000a900460ff1681565b6000806000806000600760009054906101000a900473ffffffffffffffffffffffffffffffffffffffff1673ffffffffffffffffffffffffffffffffffffffff163373ffffffffffffffffffffffffffffffffffffffff1614151561127457600080fd5b429350620151808481151561128557fe5b04925082600a54141561129b5760009450611305565b82600a819055506301e1338060095485038115156112b557fe5b0460140390506000811115156112ce5760009450611305565b600281600854028115156112de57fe5b04915081600b60008282540192505081905550816000808282540192505081905550600194505b5050505090565b600081600d60003373ffffffffffffffffffffffffffffffffffffffff1673ffffffffffffffffffffffffffffffffffffffff16815260200190815260200160002054600160003373ffffffffffffffffffffffffffffffffffffffff1673ffffffffffffffffffffffffffffffffffffffff16815260200190815260200160002054031015801561141d5750600160008473ffffffffffffffffffffffffffffffffffffffff1673ffffffffffffffffffffffffffffffffffffffff1681526020019081526020016000205482600160008673ffffffffffffffffffffffffffffffffffffffff1673ffffffffffffffffffffffffffffffffffffffff1681526020019081526020016000205401115b151561142857600080fd5b81600160003373ffffffffffffffffffffffffffffffffffffffff1673ffffffffffffffffffffffffffffffffffffffff1681526020019081526020016000206000828254039250508190555081600160008573ffffffffffffffffffffffffffffffffffffffff1673ffffffffffffffffffffffffffffffffffffffff168152602001908152602001600020600082825401925050819055508273ffffffffffffffffffffffffffffffffffffffff163373ffffffffffffffffffffffffffffffffffffffff167fddf252ad1be2c89b69c2b068fc378daa952ba7f163c4a11628f55a4df523b3ef846040518082815260200191505060405180910390a36001905092915050565b6000600b54905090565b600060011515600c60003373ffffffffffffffffffffffffffffffffffffffff1673ffffffffffffffffffffffffffffffffffffffff16815260200190815260200160002060009054906101000a900460ff16151514151561159c57600080fd5b81600b541015801561162d5750600160003373ffffffffffffffffffffffffffffffffffffffff1673ffffffffffffffffffffffffffffffffffffffff1681526020019081526020016000205482600160003373ffffffffffffffffffffffffffffffffffffffff1673ffffffffffffffffffffffffffffffffffffffff1681526020019081526020016000205401115b151561163857600080fd5b81600b6000828254039250508190555081600160003373ffffffffffffffffffffffffffffffffffffffff1673ffffffffffffffffffffffffffffffffffffffff1681526020019081526020016000206000828254019250508190555060019050919050565b6000600d60008473ffffffffffffffffffffffffffffffffffffffff1673ffffffffffffffffffffffffffffffffffffffff1681526020019081526020016000205490508082111515156116f157600080fd5b81600d60008573ffffffffffffffffffffffffffffffffffffffff1673ffffffffffffffffffffffffffffffffffffffff1681526020019081526020016000206000828254039250508190555081600b60008282540192505081905550505050565b6000600260008473ffffffffffffffffffffffffffffffffffffffff1673ffffffffffffffffffffffffffffffffffffffff16815260200190815260200160002060008373ffffffffffffffffffffffffffffffffffffffff1673ffffffffffffffffffffffffffffffffffffffff16815260200190815260200160002054905092915050565b600060011515600c60003373ffffffffffffffffffffffffffffffffffffffff1673ffffffffffffffffffffffffffffffffffffffff16815260200190815260200160002060009054906101000a900460ff16151514151561183b57600080fd5b81600160003373ffffffffffffffffffffffffffffffffffffffff1673ffffffffffffffffffffffffffffffffffffffff168152602001908152602001600020541015801561188f5750600b5482600b5401115b151561189a57600080fd5b81600160003373ffffffffffffffffffffffffffffffffffffffff1673ffffffffffffffffffffffffffffffffffffffff1681526020019081526020016000206000828254039250508190555081600b6000828254019250508190555060019050919050565b600760009054906101000a900473ffffffffffffffffffffffffffffffffffffffff1673ffffffffffffffffffffffffffffffffffffffff163373ffffffffffffffffffffffffffffffffffffffff1614151561195c57600080fd5b6000811015151561196c57600080fd5b80600d60008473ffffffffffffffffffffffffffffffffffffffff1673ffffffffffffffffffffffffffffffffffffffff168152602001908152602001600020600082825401925050819055508173ffffffffffffffffffffffffffffffffffffffff167f309abaa597762e4a25b1a0a87b5a1045cbd568620f4a24de5f11759fe2348b8e8242604051808381526020018281526020019250505060405180910390a250505600a165627a7a72305820f2d493d2c18116b4b555fe946787991682f84ff1e1c4e67f46d7388a3814e1c70029",
  "source": "pragma solidity ^0.4.8;\n\nimport \"./StandardToken.sol\";\nimport \"../contract/Ownable.sol\";\nimport \"../interface/PrimasStorageInterface.sol\";\n\ncontract PrimasToken is StandardToken {\n\n    /**** Properties ************/\n\n    string public name = \"Primas Token V1\";\n    uint public decimals = 18;\n    string public symbol = \"PST\";\n    string public version = \"V1.0\";\n    address initialOwner;\n    uint initialAmount;\n    uint deployTime;\n\n    // 增发\n    uint lastInflationDayStart;\n\n\n    // 奖励池\n    uint incentivesPool;\n    mapping(address => bool) public incentivesOperators;\n\n    // 创建作者身份需锁定一部分 PST\n    mapping(address => uint) private autherStorage;\n\n    // 发布文章需锁定一部分 PST\n    mapping(bytes32 => uint) private articleStorage;\n    // 锁定时间\n    mapping(bytes32 => uint) private tokenLockStorage;\n\n    /*** Contracts **************/\n    PrimasStorageInterface primaStorage = PrimasStorageInterface(0);\n\n\n\n    /*** Events ****************/\n\n    event UserDeposit (\n        address indexed _from,\n        string  poolStakingTimeID,\n        uint256 value,\n        uint256 created\n    );\n\n    event UserAddedToPool (\n        address indexed _userAddress,\n        address indexed _partnerAddress,\n        address indexed _pool,\n        uint256 created\n    );\n\n    event UserSetBackupWithdrawalAddress (\n        address indexed _userAddress,\n        address indexed _userBackupAddress,\n        address indexed _pool,\n        uint256 created\n    );\n\n    event UserChangedToWithdrawalAddress (\n        address indexed _userAddress,\n        address indexed _userNewAddress,\n        address indexed _pool,\n        uint256 created\n    );\n\n    event UserDepositTokensWithdrawal (\n        address indexed _userAddress,\n        uint256 amount,\n        uint256 tokenAmount,\n        uint256 created\n    );\n\n    event Transferred (\n        address indexed _from,\n        address indexed _to,\n        bytes32 indexed _typeOf,\n        uint256 value,\n        uint256 created\n    );\n\n\n    event FlagUint (\n        uint256 flag\n    );\n\n    event FlagAddress (\n        address flag\n    );\n\n    event UpdateAutherMemberLog (\n        address indexed _operator,\n        uint256 amount,\n        uint256 created\n    );\n\n    /*** Modifiers *************/\n    modifier ownerOnly() {\n        require(msg.sender == initialOwner);\n        _;\n    }\n\n    // 要求发布内容的地址锁定 pst 超过 300\n    modifier autherOnly(address _address) {\n        assert(autherStorage[_address] > 0);\n        _;\n    }\n\n    modifier incentivesOperatorsOnly () {\n        require(incentivesOperators[msg.sender] == true);\n        _;\n    }\n\n    /*** Constructor *************/\n    function PrimasToken(address _primasStorageAddress) public {\n        initialAmount = 100000000 * 10 ** decimals;\n        balances[msg.sender] = initialAmount;\n        totalSupply = initialAmount;\n        initialOwner = msg.sender;\n        deployTime = block.timestamp;\n        incentivesPool = 0;\n        lastInflationDayStart = 0;\n\n        primaStorage = PrimasStorageInterface(_primasStorageAddress);\n    }\n\n    /*** Methods *************/\n\n    /* ====================== Inflation related methods ============================ */\n    function inflate() ownerOnly() public returns (bool success) {\n\n        uint currentTime = block.timestamp;\n\n        uint currentDayStart = currentTime / 1 days;\n\n        uint inflationAmount;\n\n        if (lastInflationDayStart == currentDayStart) {\n            return false;\n        }\n\n        lastInflationDayStart = currentDayStart;\n\n        uint currentInflationRateDoubled = 20 - ( currentTime - deployTime ) / 1 years;\n\n        if (currentInflationRateDoubled <= 0) {\n            return false;\n        }\n\n        inflationAmount = initialAmount * currentInflationRateDoubled / 2;\n\n        incentivesPool += inflationAmount;\n        totalSupply += inflationAmount;\n\n        return true;\n    }\n\n    function getIncentivesPool() view public returns (uint) {\n        return incentivesPool;\n    }\n\n    /* ====================== Incentives related methods ============================ */\n    function updateIncentivesOperator(address _operator, uint _value) ownerOnly() public returns (bool success) {\n        require(incentivesOperators[_operator]);\n        if (_value > 0) {\n            incentivesOperators[_operator] = true;\n            return true;\n        } else {\n            return false;\n        }\n    }\n\n    function incentivesIn(uint _value) incentivesOperatorsOnly () public returns (bool success) {\n\n        require(balances[msg.sender] >= _value && incentivesPool + _value > incentivesPool);\n\n        balances[msg.sender] -= _value;\n        incentivesPool += _value;\n\n        return true;\n    }\n\n    function incentivesOut(uint _value) incentivesOperatorsOnly () public returns (bool success) {\n        require(incentivesPool >= _value && balances[msg.sender] + _value > balances[msg.sender]);\n\n        incentivesPool -= _value;\n        balances[msg.sender] += _value;\n\n        return true;\n    }\n\n    /* ====================== Incentives related methods ============================ */\n\n    // 创建作者身份需锁定一定量的 PST\n    function updateAutherMember(address _operator, uint _value) ownerOnly() public {\n\n        require(_value >= 0);\n\n        autherStorage[_operator] += _value;\n\n        UpdateAutherMemberLog(_operator, _value, now);\n    }\n\n    // 查询作者身份\n    function checkAutherRequire(address _autherAddress) view public returns(bool) {\n        var amount = autherStorage[_autherAddress];\n        if (amount >= 0) {\n            return true;\n        } else {\n            return false;\n        }\n    }\n\n    // 对于违规作者扣除 PST, 并将扣除的 PST 加入奖励池\n    function penaltyAuther(address _fineUser, uint _fineAmount) public {\n        var remainAmount = autherStorage[_fineUser];\n        require(_fineAmount  <= remainAmount);\n        autherStorage[_fineUser] -= _fineAmount;\n        incentivesPool += _fineAmount;\n    }\n\n    // 对内容提供锁定 PST 功能\n    function tokenTimelock(address _beneficiary, bytes32 _dna, uint _value, uint _releaseTime) ownerOnly() public {\n        autherStorage[_beneficiary] += _value;\n        articleStorage[_dna] = _value;\n        tokenLockStorage[_dna] = now + _releaseTime * 1 days;\n    }\n\n    // 解锁 PST 锁定状态\n    function releaseArticleLockToken(address _beneficiary, bytes32 _dna) ownerOnly() public {\n        require(tokenLockStorage[_dna] > now);\n        var lockAmount = articleStorage[_dna];\n        articleStorage[_dna] -= lockAmount;\n        autherStorage[_beneficiary] -= lockAmount;\n    }\n\n    /* ====================== Token related methods ============================ */\n    \n    function balanceOf(address _owner) constant public returns (uint256 balance) {\n        var avaliableAmount = balances[_owner] - autherStorage[_owner];\n        return avaliableAmount;\n    }\n\n    function transfer(address _to, uint256 _value) public returns (bool success) {\n        require(balances[msg.sender] - autherStorage[msg.sender] >= _value && balances[_to] + _value > balances[_to]);\n        balances[msg.sender] -= _value;\n        balances[_to] += _value;\n        Transfer(msg.sender, _to, _value);\n        return true;\n    }\n\n}\n",
  "sourcePath": "/Users/jiaji/yuanben/primas-contracts/contracts/token/PrimasToken.sol",
  "compiler": {
    "name": "solc",
    "version": "0.4.18+commit.9cf6e910.Emscripten.clang"
  },
  "schemaVersion": "1.0.1",
  "updatedAt": "2017-12-20T05:32:03.993Z"
}