{
  "contractName": "PrimasMetadata",
  "abi": [
    {
      "constant": false,
      "inputs": [
        {
          "name": "title",
          "type": "bytes"
        },
        {
          "name": "content_hash",
          "type": "bytes"
        },
        {
          "name": "license",
          "type": "bytes"
        },
        {
          "name": "block_hash",
          "type": "bytes"
        },
        {
          "name": "extras",
          "type": "bytes"
        },
        {
          "name": "signature",
          "type": "bytes"
        }
      ],
      "name": "sign_publish",
      "outputs": [
        {
          "name": "",
          "type": "bytes"
        }
      ],
      "payable": false,
      "stateMutability": "nonpayable",
      "type": "function"
    },
    {
      "constant": false,
      "inputs": [
        {
          "name": "title",
          "type": "bytes"
        },
        {
          "name": "content_hash",
          "type": "bytes"
        },
        {
          "name": "license",
          "type": "bytes"
        },
        {
          "name": "block_hash",
          "type": "bytes"
        },
        {
          "name": "extras",
          "type": "bytes"
        },
        {
          "name": "signature",
          "type": "bytes"
        }
      ],
      "name": "comment",
      "outputs": [
        {
          "name": "",
          "type": "bytes"
        }
      ],
      "payable": false,
      "stateMutability": "nonpayable",
      "type": "function"
    },
    {
      "constant": false,
      "inputs": [
        {
          "name": "dna",
          "type": "bytes"
        },
        {
          "name": "community",
          "type": "bytes"
        },
        {
          "name": "signature",
          "type": "bytes"
        },
        {
          "name": "block_hash",
          "type": "bytes"
        },
        {
          "name": "extras",
          "type": "bytes"
        },
        {
          "name": "signature",
          "type": "bytes"
        },
        {
          "name": "link",
          "type": "bytes"
        }
      ],
      "name": "forward",
      "outputs": [
        {
          "name": "",
          "type": "address"
        }
      ],
      "payable": false,
      "stateMutability": "nonpayable",
      "type": "function"
    },
    {
      "constant": false,
      "inputs": [
        {
          "name": "dna",
          "type": "bytes"
        },
        {
          "name": "signature",
          "type": "bytes"
        },
        {
          "name": "community",
          "type": "bytes"
        },
        {
          "name": "block_hash",
          "type": "bytes"
        },
        {
          "name": "signature",
          "type": "bytes"
        }
      ],
      "name": "like",
      "outputs": [
        {
          "name": "",
          "type": "address"
        }
      ],
      "payable": false,
      "stateMutability": "nonpayable",
      "type": "function"
    },
    {
      "constant": false,
      "inputs": [
        {
          "name": "dna",
          "type": "bytes"
        },
        {
          "name": "link",
          "type": "bytes"
        },
        {
          "name": "signature",
          "type": "bytes"
        },
        {
          "name": "block_hash",
          "type": "bytes"
        },
        {
          "name": "signature",
          "type": "bytes"
        }
      ],
      "name": "reproduce",
      "outputs": [
        {
          "name": "",
          "type": "address"
        }
      ],
      "payable": false,
      "stateMutability": "nonpayable",
      "type": "function"
    },
    {
      "constant": false,
      "inputs": [
        {
          "name": "_dna",
          "type": "bytes",
          "indexed": true
        },
        {
          "name": "content_hash",
          "type": "bytes"
        },
        {
          "name": "license",
          "type": "bytes"
        },
        {
          "name": "block_hash",
          "type": "bytes"
        },
        {
          "name": "signature",
          "type": "bytes"
        },
        {
          "name": "link",
          "type": "bytes"
        }
      ],
      "name": "LikeLog",
      "outputs": [
        {
          "name": "",
          "type": "bytes"
        }
      ],
      "payable": false,
      "stateMutability": "nonpayable",
      "type": "event",
      "anonymous": false
    },
    {
      "anonymous": false,
      "inputs": [
        {
          "indexed": true,
          "name": "_dna",
          "type": "bytes"
        }
      ],
      "name": "CommentLog",
      "type": "event"
    },
    {
      "anonymous": false,
      "inputs": [
        {
          "indexed": true,
          "name": "_dna",
          "type": "bytes"
        },
        {
          "indexed": true,
          "name": "_community",
          "type": "bytes"
        }
      ],
      "name": "ForwardLog",
      "type": "event"
    },
    {
      "anonymous": false,
      "inputs": [
        {
          "indexed": true,
          "name": "_dna",
          "type": "bytes"
        },
        {
          "indexed": true,
          "name": "_link",
          "type": "bytes"
        }
      ],
      "name": "ReproduceLog",
      "type": "event"
    },
    {
      "anonymous": false,
      "inputs": [
        {
          "indexed": false,
          "name": "title",
          "type": "bytes"
        },
        {
          "indexed": false,
          "name": "content_hash",
          "type": "bytes"
        },
        {
          "indexed": false,
          "name": "license",
          "type": "bytes"
        },
        {
          "indexed": false,
          "name": "extras",
          "type": "bytes"
        },
        {
          "indexed": false,
          "name": "dna",
          "type": "bytes"
        },
        {
          "indexed": false,
          "name": "signature",
          "type": "bytes"
        },
        {
          "indexed": false,
          "name": "pk",
          "type": "address"
        }
      ],
      "name": "MetadataPublishLog",
      "type": "event"
    },
    {
      "anonymous": false,
      "inputs": [
        {
          "indexed": false,
          "name": "title",
          "type": "bytes"
        },
        {
          "indexed": false,
          "name": "content_hash",
          "type": "bytes"
        },
        {
          "indexed": false,
          "name": "license",
          "type": "bytes"
        },
        {
          "indexed": false,
          "name": "extras",
          "type": "bytes"
        },
        {
          "indexed": false,
          "name": "dna",
          "type": "bytes"
        },
        {
          "indexed": false,
          "name": "signature",
          "type": "bytes"
        },
        {
          "indexed": false,
          "name": "pk",
          "type": "address"
        }
      ],
      "name": "MetadataPublishLog",
      "type": "event"
    }
  ],
  "bytecode": "0x6060604052341561000f57600080fd5b6116e28061001e6000396000f30060606040526004361061006d576000357c0100000000000000000000000000000000000000000000000000000000900463ffffffff16806301f7b1111461007257806340a6d194146102975780638991b8f6146104bc5780638f21240e146105df578063f8f6a9a0146106bf575b600080fd5b341561007d57600080fd5b61021c600480803590602001908201803590602001908080601f0160208091040260200160405190810160405280939291908181526020018383808284378201915050505050509190803590602001908201803590602001908080601f0160208091040260200160405190810160405280939291908181526020018383808284378201915050505050509190803590602001908201803590602001908080601f0160208091040260200160405190810160405280939291908181526020018383808284378201915050505050509190803590602001908201803590602001908080601f0160208091040260200160405190810160405280939291908181526020018383808284378201915050505050509190803590602001908201803590602001908080601f0160208091040260200160405190810160405280939291908181526020018383808284378201915050505050509190803590602001908201803590602001908080601f016020809104026020016040519081016040528093929190818152602001838380828437820191505050505050919050506107e2565b6040518080602001828103825283818151815260200191508051906020019080838360005b8381101561025c578082015181840152602081019050610241565b50505050905090810190601f1680156102895780820380516001836020036101000a031916815260200191505b509250505060405180910390f35b34156102a257600080fd5b610441600480803590602001908201803590602001908080601f0160208091040260200160405190810160405280939291908181526020018383808284378201915050505050509190803590602001908201803590602001908080601f0160208091040260200160405190810160405280939291908181526020018383808284378201915050505050509190803590602001908201803590602001908080601f0160208091040260200160405190810160405280939291908181526020018383808284378201915050505050509190803590602001908201803590602001908080601f0160208091040260200160405190810160405280939291908181526020018383808284378201915050505050509190803590602001908201803590602001908080601f0160208091040260200160405190810160405280939291908181526020018383808284378201915050505050509190803590602001908201803590602001908080601f01602080910402602001604051908101604052809392919081815260200183838082843782019150505050505091905050610a8a565b6040518080602001828103825283818151815260200191508051906020019080838360005b83811015610481578082015181840152602081019050610466565b50505050905090810190601f1680156104ae5780820380516001836020036101000a031916815260200191505b509250505060405180910390f35b34156104c757600080fd5b61059d600480803590602001908201803590602001908080601f0160208091040260200160405190810160405280939291908181526020018383808284378201915050505050509190803590602001908201803590602001908080601f0160208091040260200160405190810160405280939291908181526020018383808284378201915050505050509190803590602001908201803590602001908080601f01602080910402602001604051908101604052809392919081815260200183838082843782019150505050505091905050610b47565b604051808273ffffffffffffffffffffffffffffffffffffffff1673ffffffffffffffffffffffffffffffffffffffff16815260200191505060405180910390f35b34156105ea57600080fd5b61067d600480803590602001908201803590602001908080601f0160208091040260200160405190810160405280939291908181526020018383808284378201915050505050509190803590602001908201803590602001908080601f01602080910402602001604051908101604052809392919081815260200183838082843782019150505050505091905050610d49565b604051808273ffffffffffffffffffffffffffffffffffffffff1673ffffffffffffffffffffffffffffffffffffffff16815260200191505060405180910390f35b34156106ca57600080fd5b6107a0600480803590602001908201803590602001908080601f0160208091040260200160405190810160405280939291908181526020018383808284378201915050505050509190803590602001908201803590602001908080601f0160208091040260200160405190810160405280939291908181526020018383808284378201915050505050509190803590602001908201803590602001908080601f01602080910402602001604051908101604052809392919081815260200183838082843782019150505050505091905050610e92565b604051808273ffffffffffffffffffffffffffffffffffffffff1673ffffffffffffffffffffffffffffffffffffffff16815260200191505060405180910390f35b6107ea6116a2565b6000806000806107f86116a2565b61080d6108088860006020611055565b61114b565b945061082361081e88602080611055565b61114b565b93506108328760406001611055565b600081518110151561084057fe5b9060200101517f010000000000000000000000000000000000000000000000000000000000000090047f01000000000000000000000000000000000000000000000000000000000000000292506109a58c8c8c6040518084805190602001908083835b6020831015156108c857805182526020820191506020810190506020830392506108a3565b6001836020036101000a03801982511681845116808217855250505050505090500183805190602001908083835b60208310151561091b57805182526020820191506020810190506020830392506108f6565b6001836020036101000a03801982511681845116808217855250505050505090500182805190602001908083835b60208310151561096e5780518252602082019150602081019050602083039250610949565b6001836020036101000a03801982511681845116808217855250505050505090500193505050506040518091039020868686611159565b9150610a67878a6040518083805190602001908083835b6020831015156109e157805182526020820191506020810190506020830392506109bc565b6001836020036101000a03801982511681845116808217855250505050505090500182805190602001908083835b602083101515610a345780518252602082019150602081019050602083039250610a0f565b6001836020036101000a038019825116818451168082178552505050505050905001925050506040518091039020611217565b9050610a788c8c8c8b858c886112e3565b80955050505050509695505050505050565b610a926116a2565b610a9a6116a2565b610aa88888888888886107e2565b9050806040518082805190602001908083835b602083101515610ae05780518252602082019150602081019050602083039250610abb565b6001836020036101000a03801982511681845116808217855250505050505090500191505060405180910390207f0939da67da8242116d6183bb1f65f04b7e6627206eccd5f6e3176709bf7968be60405160405180910390a2809150509695505050505050565b600080610c0b85856040518083805190602001908083835b602083101515610b845780518252602082019150602081019050602083039250610b5f565b6001836020036101000a03801982511681845116808217855250505050505090500182805190602001908083835b602083101515610bd75780518252602082019150602081019050602083039250610bb2565b6001836020036101000a038019825116818451168082178552505050505050905001925050506040518091039020846115dd565b9050600073ffffffffffffffffffffffffffffffffffffffff168173ffffffffffffffffffffffffffffffffffffffff16141515610d3d57836040518082805190602001908083835b602083101515610c795780518252602082019150602081019050602083039250610c54565b6001836020036101000a0380198251168184511680821785525050505050509050019150506040518091039020856040518082805190602001908083835b602083101515610cdc5780518252602082019150602081019050602083039250610cb7565b6001836020036101000a03801982511681845116808217855250505050505090500191505060405180910390207f019af5fbe8b6dcd6b4fa94b8c50d191b424435bfe8f3cbfdbe5930af0d593a3160405160405180910390a3809150610d41565b8091505b509392505050565b600080610db8846040518082805190602001908083835b602083101515610d855780518252602082019150602081019050602083039250610d60565b6001836020036101000a0380198251168184511680821785525050505050509050019150506040518091039020846115dd565b9050600073ffffffffffffffffffffffffffffffffffffffff168173ffffffffffffffffffffffffffffffffffffffff16141515610e8757836040518082805190602001908083835b602083101515610e265780518252602082019150602081019050602083039250610e01565b6001836020036101000a03801982511681845116808217855250505050505090500191505060405180910390207fd6c650b0720e6304a6e142897b300fc3ccf597b78692274ede3637d28a28c38860405160405180910390a2809150610e8b565b8091505b5092915050565b600080610f5685856040518083805190602001908083835b602083101515610ecf5780518252602082019150602081019050602083039250610eaa565b6001836020036101000a03801982511681845116808217855250505050505090500182805190602001908083835b602083101515610f225780518252602082019150602081019050602083039250610efd565b6001836020036101000a038019825116818451168082178552505050505050905001925050506040518091039020846115dd565b9050836040518082805190602001908083835b602083101515610f8e5780518252602082019150602081019050602083039250610f69565b6001836020036101000a0380198251168184511680821785525050505050509050019150506040518091039020856040518082805190602001908083835b602083101515610ff15780518252602082019150602081019050602083039250610fcc565b6001836020036101000a03801982511681845116808217855250505050505090500191505060405180910390207ffd6d7815884c21a09bf08114e2eb22d5f8ab4f4494ed1a9d599267dd14d5a7f260405160405180910390a3809150509392505050565b61105d6116a2565b6110656116a2565b6000836040518059106110755750595b9080825280601f01601f19166020018201604052509150600090505b8381101561113f57858582018151811015156110a957fe5b9060200101517f010000000000000000000000000000000000000000000000000000000000000090047f010000000000000000000000000000000000000000000000000000000000000002828281518110151561110257fe5b9060200101907effffffffffffffffffffffffffffffffffffffffffffffffffffffffffffff1916908160001a9053508080600101915050611091565b81925050509392505050565b600060208201519050919050565b600080601b837f01000000000000000000000000000000000000000000000000000000000000009004019050600186828787604051600081526020016040526000604051602001526040518085600019166000191681526020018460ff1660ff16815260200183600019166000191681526020018260001916600019168152602001945050505050602060405160208103908084039060008661646e5a03f1151561120357600080fd5b505060206040510351915050949350505050565b61121f6116a2565b6112276116a2565b600060206040518059106112385750595b9080825280601f01601f19166020018201604052509150600090505b60208110156112d957838160208110151561126b57fe5b1a7f010000000000000000000000000000000000000000000000000000000000000002828281518110151561129c57fe5b9060200101907effffffffffffffffffffffffffffffffffffffffffffffffffffffffffffff1916908160001a9053508080600101915050611254565b8192505050919050565b7feb9c20108e54d356242b30fb6d20d15d387ff80600c0ab3c855cfe14cd31138e87878787878787604051808060200180602001806020018060200180602001806020018873ffffffffffffffffffffffffffffffffffffffff1673ffffffffffffffffffffffffffffffffffffffff16815260200187810387528e818151815260200191508051906020019080838360005b83811015611391578082015181840152602081019050611376565b50505050905090810190601f1680156113be5780820380516001836020036101000a031916815260200191505b5087810386528d818151815260200191508051906020019080838360005b838110156113f75780820151818401526020810190506113dc565b50505050905090810190601f1680156114245780820380516001836020036101000a031916815260200191505b5087810385528c818151815260200191508051906020019080838360005b8381101561145d578082015181840152602081019050611442565b50505050905090810190601f16801561148a5780820380516001836020036101000a031916815260200191505b5087810384528b818151815260200191508051906020019080838360005b838110156114c35780820151818401526020810190506114a8565b50505050905090810190601f1680156114f05780820380516001836020036101000a031916815260200191505b5087810383528a818151815260200191508051906020019080838360005b8381101561152957808201518184015260208101905061150e565b50505050905090810190601f1680156115565780820380516001836020036101000a031916815260200191505b50878103825289818151815260200191508051906020019080838360005b8381101561158f578082015181840152602081019050611574565b50505050905090810190601f1680156115bc5780820380516001836020036101000a031916815260200191505b509d505050505050505050505050505060405180910390a150505050505050565b600080600080604185511415156115f75760009350611699565b6020850151925060408501519150606085015160001a9050600186828585604051600081526020016040526000604051602001526040518085600019166000191681526020018460ff1660ff16815260200183600019166000191681526020018260001916600019168152602001945050505050602060405160208103908084039060008661646e5a03f1151561168d57600080fd5b50506020604051035193505b50505092915050565b6020604051908101604052806000815250905600a165627a7a723058206f732c51788542c79a0289e5502f412f5319c647fa7a017d15442fd14304444f0029",
  "source": "pragma solidity ^0.4.16;\n\nimport \"./Metadata.sol\";\n\ncontract PrimasMetadata is Metadata{\n\n    event LikeLog(\n        bytes indexed _dna\n    );\n\n    event CommentLog(\n        bytes indexed _dna\n    );\n\n    event ForwardLog(\n        bytes indexed _dna,\n        bytes indexed _community\n    );\n\n    event ReproduceLog(\n        bytes indexed _dna,\n        bytes indexed _link\n    );\n\n    function like(\n    bytes dna,\n    bytes signature\n    ) public returns(address) {\n        address pk = recover(keccak256(dna),signature);\n        if(pk != address(0)) {\n             LikeLog(dna);\n            return pk;\n        } else {\n            return pk;\n        }\n    }\n\n    function comment(\n    bytes title,\n    bytes content_hash,\n    bytes license,\n    bytes block_hash,\n    bytes extras,\n    bytes signature\n    ) public returns (bytes) {\n        bytes memory dna;\n        dna = sign_publish(title, content_hash, license, block_hash, extras, signature);\n        CommentLog(dna);\n        return dna;\n    }\n\n    function forward(\n    bytes dna,\n    bytes community,\n    bytes signature\n    ) public returns(address){\n\n        address pk = recover(keccak256(dna,community),signature);\n        if(pk != address(0)) {\n            ForwardLog(dna,community);\n            return pk;\n        } else {\n            return pk;\n        }\n    }\n\n    function reproduce(\n    bytes dna,\n    bytes link,\n    bytes signature\n    ) public returns(address){\n\n        address pk = recover(keccak256(dna,link),signature);\n        ReproduceLog(dna, link);\n        return pk;\n    }\n\n    function recover(\n    bytes32 hash,\n    bytes sig\n    ) internal pure returns(address) {\n        bytes32 r;\n        bytes32 s;\n        uint8 v;\n\n        //Check the signature length\n        if (sig.length != 65) {\n          return (address(0));\n        }\n\n        // Divide the signature in r, s and v variables\n        assembly {\n          r := mload(add(sig, 32))\n          s := mload(add(sig, 64))\n          v := byte(0, mload(add(sig, 96)))\n        }\n        return ecrecover(hash, v, r, s);\n    }\n\n\n}\n",
  "sourcePath": "/Users/jiaji/yuanben/primas-contracts/contracts/dtcp/PrimasMetadata.sol",
  "compiler": {
    "name": "solc",
    "version": "0.4.18+commit.9cf6e910.Emscripten.clang"
  },
  "schemaVersion": "1.0.1",
  "updatedAt": "2017-12-20T06:32:15.545Z"
}