{
  "contractName": "PrimasCommunity",
  "abi": [
    {
      "constant": false,
      "inputs": [
        {
          "name": "title",
          "type": "string"
        },
        {
          "name": "content_hash",
          "type": "string"
        },
        {
          "name": "license",
          "type": "string"
        },
        {
          "name": "extras",
          "type": "string"
        },
        {
          "name": "dna",
          "type": "string"
        },
        {
          "name": "signature",
          "type": "bytes"
        },
        {
          "name": "pk",
          "type": "address"
        }
      ],
      "name": "authenticate",
      "outputs": [],
      "payable": false,
      "stateMutability": "nonpayable",
      "type": "function"
    },
    {
      "constant": false,
      "inputs": [
        {
          "name": "_articleDNA",
          "type": "bytes10"
        }
      ],
      "name": "forward",
      "outputs": [
        {
          "name": "number",
          "type": "uint256"
        }
      ],
      "payable": false,
      "stateMutability": "nonpayable",
      "type": "function"
    },
    {
      "constant": false,
      "inputs": [
        {
          "name": "DNA",
          "type": "bytes10"
        }
      ],
      "name": "thumbUp",
      "outputs": [],
      "payable": false,
      "stateMutability": "nonpayable",
      "type": "function"
    },
    {
      "constant": true,
      "inputs": [],
      "name": "owner",
      "outputs": [
        {
          "name": "",
          "type": "address"
        }
      ],
      "payable": false,
      "stateMutability": "view",
      "type": "function"
    },
    {
      "constant": false,
      "inputs": [
        {
          "name": "_articleDNA",
          "type": "bytes10"
        }
      ],
      "name": "reproduce",
      "outputs": [
        {
          "name": "number",
          "type": "uint256"
        }
      ],
      "payable": false,
      "stateMutability": "nonpayable",
      "type": "function"
    },
    {
      "constant": false,
      "inputs": [
        {
          "name": "newOwner",
          "type": "address"
        }
      ],
      "name": "transferOwnership",
      "outputs": [],
      "payable": false,
      "stateMutability": "nonpayable",
      "type": "function"
    },
    {
      "constant": false,
      "inputs": [
        {
          "name": "_articleDNA",
          "type": "bytes10"
        },
        {
          "name": "blockHash",
          "type": "address"
        },
        {
          "name": "dna",
          "type": "string"
        },
        {
          "name": "_type_",
          "type": "string"
        },
        {
          "name": "language",
          "type": "string"
        },
        {
          "name": "title",
          "type": "string"
        },
        {
          "name": "_abstract_",
          "type": "string"
        },
        {
          "name": "category",
          "type": "string"
        },
        {
          "name": "created",
          "type": "uint256"
        },
        {
          "name": "creator",
          "type": "string"
        },
        {
          "name": "creatorId",
          "type": "string"
        },
        {
          "name": "contentHash",
          "type": "string"
        },
        {
          "name": "signature",
          "type": "string"
        },
        {
          "name": "similaritySocre",
          "type": "string"
        }
      ],
      "name": "comment",
      "outputs": [],
      "payable": false,
      "stateMutability": "nonpayable",
      "type": "function"
    },
    {
      "inputs": [
        {
          "name": "_addr",
          "type": "address"
        }
      ],
      "payable": false,
      "stateMutability": "nonpayable",
      "type": "constructor"
    },
    {
      "anonymous": false,
      "inputs": [
        {
          "indexed": true,
          "name": "previousOwner",
          "type": "address"
        },
        {
          "indexed": true,
          "name": "newOwner",
          "type": "address"
        }
      ],
      "name": "OwnershipTransferred",
      "type": "event"
    }
  ],
  "bytecode": "0x6060604052341561000f57600080fd5b6040516020806109cf83398101604052808051906020019091905050336000806101000a81548173ffffffffffffffffffffffffffffffffffffffff021916908373ffffffffffffffffffffffffffffffffffffffff16021790555033600160006101000a81548173ffffffffffffffffffffffffffffffffffffffff021916908373ffffffffffffffffffffffffffffffffffffffff16021790555080600260006101000a81548173ffffffffffffffffffffffffffffffffffffffff021916908373ffffffffffffffffffffffffffffffffffffffff160217905550506108d2806100fd6000396000f300606060405260043610610083576000357c0100000000000000000000000000000000000000000000000000000000900463ffffffff168063313ef804146100885780637f3c518c146102535780638d29d1e1146102a35780638da5cb5b146102df578063d975bbee14610334578063f2fde38b14610384578063f3a12354146103bd575b600080fd5b341561009357600080fd5b610251600480803590602001908201803590602001908080601f0160208091040260200160405190810160405280939291908181526020018383808284378201915050505050509190803590602001908201803590602001908080601f0160208091040260200160405190810160405280939291908181526020018383808284378201915050505050509190803590602001908201803590602001908080601f0160208091040260200160405190810160405280939291908181526020018383808284378201915050505050509190803590602001908201803590602001908080601f0160208091040260200160405190810160405280939291908181526020018383808284378201915050505050509190803590602001908201803590602001908080601f0160208091040260200160405190810160405280939291908181526020018383808284378201915050505050509190803590602001908201803590602001908080601f0160208091040260200160405190810160405280939291908181526020018383808284378201915050505050509190803573ffffffffffffffffffffffffffffffffffffffff16906020019091905050610702565b005b341561025e57600080fd5b61028d600480803575ffffffffffffffffffffffffffffffffffffffffffff191690602001909190505061070b565b6040518082815260200191505060405180910390f35b34156102ae57600080fd5b6102dd600480803575ffffffffffffffffffffffffffffffffffffffffffff1916906020019091905050610712565b005b34156102ea57600080fd5b6102f2610715565b604051808273ffffffffffffffffffffffffffffffffffffffff1673ffffffffffffffffffffffffffffffffffffffff16815260200191505060405180910390f35b341561033f57600080fd5b61036e600480803575ffffffffffffffffffffffffffffffffffffffffffff191690602001909190505061073a565b6040518082815260200191505060405180910390f35b341561038f57600080fd5b6103bb600480803573ffffffffffffffffffffffffffffffffffffffff16906020019091905050610741565b005b34156103c857600080fd5b610700600480803575ffffffffffffffffffffffffffffffffffffffffffff191690602001909190803573ffffffffffffffffffffffffffffffffffffffff1690602001909190803590602001908201803590602001908080601f0160208091040260200160405190810160405280939291908181526020018383808284378201915050505050509190803590602001908201803590602001908080601f0160208091040260200160405190810160405280939291908181526020018383808284378201915050505050509190803590602001908201803590602001908080601f0160208091040260200160405190810160405280939291908181526020018383808284378201915050505050509190803590602001908201803590602001908080601f0160208091040260200160405190810160405280939291908181526020018383808284378201915050505050509190803590602001908201803590602001908080601f0160208091040260200160405190810160405280939291908181526020018383808284378201915050505050509190803590602001908201803590602001908080601f0160208091040260200160405190810160405280939291908181526020018383808284378201915050505050509190803590602001909190803590602001908201803590602001908080601f0160208091040260200160405190810160405280939291908181526020018383808284378201915050505050509190803590602001908201803590602001908080601f0160208091040260200160405190810160405280939291908181526020018383808284378201915050505050509190803590602001908201803590602001908080601f0160208091040260200160405190810160405280939291908181526020018383808284378201915050505050509190803590602001908201803590602001908080601f0160208091040260200160405190810160405280939291908181526020018383808284378201915050505050509190803590602001908201803590602001908080601f01602080910402602001604051908101604052809392919081815260200183838082843782019150505050505091905050610896565b005b50505050505050565b6000919050565b50565b6000809054906101000a900473ffffffffffffffffffffffffffffffffffffffff1681565b6000919050565b6000809054906101000a900473ffffffffffffffffffffffffffffffffffffffff1673ffffffffffffffffffffffffffffffffffffffff163373ffffffffffffffffffffffffffffffffffffffff1614151561079c57600080fd5b600073ffffffffffffffffffffffffffffffffffffffff168173ffffffffffffffffffffffffffffffffffffffff16141515156107d857600080fd5b8073ffffffffffffffffffffffffffffffffffffffff166000809054906101000a900473ffffffffffffffffffffffffffffffffffffffff1673ffffffffffffffffffffffffffffffffffffffff167f8be0079c531659141344cd1fd0a4f28419497f9722a3daafe3b4186f6b6457e060405160405180910390a3806000806101000a81548173ffffffffffffffffffffffffffffffffffffffff021916908373ffffffffffffffffffffffffffffffffffffffff16021790555050565b50505050505050505050505050505600a165627a7a72305820c413e118a22b721fc64a9b71455fd47d6e0540e2133c2401db371f7c0a6b2ca50029",
  "source": "pragma solidity ^0.4.15;\n\nimport \"../contract/Ownable.sol\";\n\nimport \"../interface/MetadataInterface.sol\";\n\ncontract PrimasCommunity is Ownable {\n\n    address initialOwner;\n\n    MetadataInterface metadata;\n\n    function PrimasCommunity(address _addr) public {\n        initialOwner = msg.sender;\n        metadata = MetadataInterface(_addr);\n    }\n\n    // 点赞操作\n    function thumbUp(bytes10 DNA) public {\n\n    }\n\n    // 评论操作\n    function comment(\n        bytes10 _articleDNA,\n        address blockHash,\n        string dna,\n        string _type_,\n        string language,\n        string title,\n        string _abstract_,\n        string category,\n        uint created,\n        string creator,\n        string creatorId,\n        string contentHash,\n        string signature,\n        string similaritySocre\n    )\n    public\n    {\n    }\n\n    // 转发操作\n    function forward(bytes10 _articleDNA) public returns (uint number) {\n\n    }\n\n    // 转载操作\n    function reproduce(bytes10 _articleDNA) public returns (uint number) {\n\n    }\n\n    // 认证\n    function authenticate(string title, string content_hash, string license, string extras, string dna, bytes signature, address pk) {\n\n    }\n\n\n}\n",
  "sourcePath": "/Users/jiaji/yuanben/primas-contracts/contracts/community/PrimasCommunity.sol",
  "compiler": {
    "name": "solc",
    "version": "0.4.18+commit.9cf6e910.Emscripten.clang"
  },
  "schemaVersion": "1.0.1",
  "updatedAt": "2017-12-19T11:18:56.287Z"
}